:020000040800F2
:1000000000500020E5510008355200083552000824
:100010003552000835520008355200080000000033
:1000200000000000000000000000000001100008B7
:10003000355200080000000071110008B9110008D5
:100040003552000835520008355200083552000874
:1000500035520008355200087D4900083552000825
:100060003552000835520008355200083552000854
:100070003552000835520008355200083552000844
:100080003552000835520008355200083552000834
:10009000355200083552000835520008A1490008C1
:1000A0003552000835520008355200083552000814
:1000B00035520008554F00083552000835520008E7
:1000C00035520008355200083552000835520008F4
:1000D00035520008355200083552000835520008E4
:1000E0003552000835520008000000003552000863
:1000F00035520008355200083552000835520008C4
:1001000035520008355200083552000835520008B3
:1001100035520008355200083552000835520008A3
:100120003552000835520008355200083552000893
:1001300010B5054C237833B9044B13B10448AFF321
:1001400000800123237010BD30000020000000005B
:10015000A852000808B5034B1BB103490348AFF38D
:10016000008008BD0000000034000020A8520008F4
:1001700080B584B002AF0321022004F00BFE002101
:10018000022004F007FE04F061F9052004F07CFB76
:10019000172004F0A3FD0121052004F0EFFA05214A
:1001A0000C4804F087FB0121052004F021FB3B1DD6
:1001B000019303230093002380220749074801F09D
:1001C0009CFE7B68184601F0F5FF00BF0837BD466E
:1001D00080BD00BF55020008C0520008E1010008C0
:1001E00080B586B000AF786000237B610123FB748B
:1001F000164802F03BFAF860154802F037FAB8608A
:10020000002004F04FF90346FB74FB7C002B14D153
:100210007B6901337B617B69962B13D10E21022010
:1002200004F0B8FD00237B610123FB74B86802F081
:1002300071F8F86801F0BEFF04E000237B61F86804
:1002400001F0B8FF142001F08FFFD9E7C052000879
:10025000CC52000880B582B000AF054802F006FA23
:100260007860786802F056F800BF0837BD4680BD58
:10027000C052000880B483B000AF7860FEE7000091
:1002800080B584B002AF03F0BFF93B1D0193022398
:100290000093002380220449044801F02EFE00BF91
:1002A0000837BD4680BD00BFD8520008B102000823
:1002B00080B586B000AF78602C4B18680A230822FE
:1002C000796901F0B1FC38613B69002B14D0002240
:1002D0000021002004F036F87B695B680021184695
:1002E00004F064F800212E2003F030FB7B691B68CA
:1002F0000021184604F05AF81D4B18680A230422FE
:10030000F96801F091FC38613B69002B09D00022AB
:100310000821002004F016F8FB680021184604F0BC
:1003200045F8134B18680A230222B96801F07CFCD7
:1003300038613B69002B14D000220021012004F019
:1003400001F8BB685B780021184604F02FF8002103
:100350002E2003F0FBFABB681B780021184604F03E
:1003600025F84FF47A7001F0FFFEA5E7F84500206C
:100370000046002080B584B002AF0921022004F0BD
:1003800009FD0221022004F005FD04F04BF90023D1
:100390003B7100237B710021786804F013FB04F0AB
:1003A000C3F93B46019303230093002380220449B1
:1003B000044801F0A2FD00BF0837BD4680BD00BF64
:1003C000E4520008C903000880B584B000AF78602B
:1003D0000023FB600023FB7204F0BAF9F860074BBE
:1003E0001868F9680023042201F050FB0346FB72F1
:1003F0004FF47A7001F0B8FEEEE700BFFC45002034
:1004000080B400AF00BFBD4680BC704780B584B0EB
:1004100002AF094B00221A7004F062F83B1D0193F1
:1004200001230093002380220449054801F065FD63
:1004300000BF0837BD4680BD4C000020F4520008C4
:100440004504000880B582B000AF78601A4B1B7875
:10045000012B1ED0642B0FD0002B00D026E00020F3
:1004600004F092F8012004F067F8022004F064F828
:10047000032004F061F819E0012004F085F8002061
:1004800004F05AF8022004F057F8032004F054F85E
:100490000CE0022004F078F8032004F075F8002046
:1004A00004F04AF8012004F047F800BF4FF47A70D6
:1004B00001F05AFECAE700BF4C00002080B586B0AC
:1004C00002AF0221022004F065FC0E21022004F09C
:1004D00061FC09233B7300237B730A233B720023D7
:1004E0007B720A21F86804F06DFA0421B86804F000
:1004F00069FA04F045FD3B1D01930323009300239B
:1005000080220F490F4801F0F8FC7B68184601F083
:1005100051FE3B46019303230093002380220A49A6
:100520000A4801F0EAFC3B68184601F043FE0E2140
:10053000022004F073FC00BF1037BD4680BD00BF31
:1005400000530008510500080C530008650A000814
:1005500080B586B000AF786000233B610023FB7557
:10056000164802F083F8F860FB7D002B03D1144895
:1005700000F028F80BE0FB7D142B08D10023FB755D
:100580000E21022004F04AFCF86801F013FE4FF43B
:100590007A7004F0ADFD38613B691B78212B05D0E2
:1005A0000123FB75386900F00DF802E0FB7D013393
:1005B000FB75012001F0D8FDD6E700BF005300080D
:1005C0001C53000880B584B000AF78607B681B784E
:1005D000303BFB73224B1A6813469B0013445B00AD
:1005E0001A46FB7B13441E4A13601D4B1B68712B7C
:1005F00009D86F2B0AD2012B08D0012B0CD30B3B4F
:10060000012B09D802E0793B022B05D8144B1B685B
:10061000184600F07FF91EE0114B1B68702B0BD0C1
:100620000F4B1B68792B07D00D4B1B687B2B03D01E
:100630000B4B1B687A2B07D1094B1B68094AA2FB9D
:100640000323DB08064A1360054B1B6819467868CC
:1006500000F00AF800BF00BF1037BD4680BD00BFE4
:1006600050000020CDCCCCCC80B58AB000AF7860F3
:1006700039603B6840F25742934200F0E580B3F5A1
:100680008B6F0DD2792B7CD0792B02D8702B22D096
:1006900028E17A2B00F0B4807B2B00F08D8021E1E3
:1006A00040F26B4293421ED040F26B42934209D813
:1006B000B3F58B6F00F0E28040F25942934200F0B4
:1006C000F7800FE140F26C42934226D040F26D4237
:1006D00093423CD006E18C4801F0C8FF386138698C
:1006E00001F018FE02E1082000F0E8F978627A686B
:1006F0000321002000F0BBF902467B6A1A607A6889
:100700000821052000F0B3F902467B6A5A6040F2E6
:100710006B43BB607B6AFB60E8E0082000F0CEF929
:1007200078627A680321002000F0A1F902467B6A12
:100730001A607A680821052000F099F902467B6A60
:100740005A6040F26C43BB607B6AFB60CEE00820DD
:1007500000F0B4F978627A680321002000F087F98C
:1007600002467B6A1A607A680821052000F07FF94A
:1007700002467B6A5A6040F26D43BB607B6AFB6055
:10078000B4E0022000F09AF978617A680221002032
:1007900000F06DF90346DAB27B695A707A68062177
:1007A000042000F064F90346DAB27B691A707923F9
:1007B000BB607B69FB6099E0032000F07FF9F86182
:1007C0007A680321002000F052F90346DAB2FB698F
:1007D0009A707A680621052000F049F90346DAB2DA
:1007E000FB695A707A680921082000F040F9034635
:1007F000DAB2FB691A707B23BB60FB69FB6075E0B2
:10080000032000F05BF9B8617A680121002000F054
:100810002EF90346DAB2BB699A707A680421032084
:1008200000F025F90346DAB2BB695A707A680721ED
:10083000062000F01CF90346DAB2BB691A707A236D
:10084000BB60BB69FB6051E0082000F037F93862FB
:100850007A680221002000F00AF902463B6A5A60D9
:100860007A680621042000F002F902463B6A1A6009
:1008700040F25743BB603B6AFB6037E0082000F062
:100880001DF938627A680221002000F0F0F8024673
:100890003B6A5A607A680621042000F0E8F80246B4
:1008A0003B6A1A604FF48B63BB603B6AFB601DE0E0
:1008B000082000F003F938627A680221002000F075
:1008C000D6F802463B6A5A607A680621042000F096
:1008D000CEF802463B6A1A6040F25943BB603B6A5D
:1008E000FB6003E0FF2000F015F800BF074B18681D
:1008F000F968BA68002301F0C9F8054801F00AFD5B
:1009000000BF2837BD4680BD0C53000804460020B8
:100910007502000880B582B000AF78607B68702BEC
:100920004DD0702B0BD80B2B22D00B2B02D8012BC8
:1009300011D061E00C2B28D06F2B33D05CE0792BE9
:100940004ED0792B02D8712B40D055E07A2B4BD06A
:100950007B2B4DD050E02C4804F07CFB2B4804F05E
:1009600079FB2B4804F076FB2A4804F073FB47E040
:10097000294804F06FFB294804F06CFB284804F078
:1009800069FB244804F066FB3AE0264804F062FB69
:10099000254804F05FFB254804F05CFB1D4804F08B
:1009A00059FB2DE0224804F055FB224804F052FB8D
:1009B000214804F04FFB214804F04CFB20E0204884
:1009C00004F048FB1F4804F045FB19E01E4804F002
:1009D00041FB1E4804F03EFB1D4804F03BFB0FE0CA
:1009E0001C4804F037FB0BE01B4804F033FB07E026
:1009F0001A4804F02FFB03E0194804F02BFB00BF5A
:100A000000BF0837BD4680BD2053000830530008A2
:100A100040530008545300087453000884530008DE
:100A2000C4530008F0530008085400081C54000880
:100A3000305400083C54000848540008585400083A
:100A400070540008A4540008D8540008E854000862
:100A5000FC5400080C5500083C550008705500086F
:100A60009855000880B483B000AF7860FEE780B48A
:100A700085B000AF03463A60FB710B46BB710023A3
:100A8000FB60FB79FB720FE0FA6813469B0013448E
:100A90005B001946FB7A3A6813441B780B44303BE1
:100AA000FB60FB7A0133FB72FA7ABB799A42EBD98D
:100AB000FB6818461437BD4680BC704780B586B0C9
:100AC00000AF78600023FB6001F0B4FC4C4B1B6866
:100AD000002B01D100F0E0F84A4B1A687B68134004
:100AE000002B40F086807B68002B1ED008227B689C
:100AF00013447A689A4218D208227B6813447B60B8
:100B00007B6803F00703002B11D07B6823F00703F9
:100B100008337A689A4205D27B6823F007030833CA
:100B20007B6004E000237B6001E000237B607B6846
:100B3000002B5ED0344B1B687A689A4259D8334BED
:100B40003B61324B1B687B6104E07B693B617B69E5
:100B50001B687B617B695B687A689A4203D97B6911
:100B60001B68002BF1D1264B1B687A699A4240D052
:100B70003B691B6808221344FB607B691A683B6968
:100B80001A607B695A687B68D21A08235B009A4214
:100B90000FD97A697B681344BB607B695A687B68AC
:100BA000D21ABB685A607B697A685A60B86800F0EC
:100BB000D5F8154B1A687B695B68D31A124A136023
:100BC000114B1A68124B1B689A4203D20E4B1B68DA
:100BD0000F4A13607B695A680A4B1B681A437B698A
:100BE0005A607B6900221A600A4B1B680133094A6C
:100BF000136001F02DFCFB6818461837BD4680BD18
:100C00005C440020704400206044002054440020D4
:100C1000644400206844002080B584B000AF786050
:100C20007B68FB607B68002B2CD008235B42FA6852
:100C30001344FB60FB68BB60BB685A68134B1B68BE
:100C40001340002B1ED0BB681B68002B1AD1BB6859
:100C50005A680E4B1B68DB431A40BB685A6001F0B0
:100C6000E9FBBB685A680A4B1B681344084A1360C7
:100C7000B86800F073F8074B1B680133054A13602E
:100C800001F0E6FB00BF1037BD4680BD7044002078
:100C9000604400206C44002080B485B000AF4FF465
:100CA0008843BB60274BFB60FB6803F00703002B06
:100CB0000CD0FB680733FB60FB6823F00703FB6085
:100CC000BA68FB68D31A1F4A1344BB60FB687B6099
:100CD0001D4A7B6813601C4B00225A607B68BA680F
:100CE0001344FB600822FB689B1AFB60FB6823F03F
:100CF0000703FB60FB68154A1360144B1B68002256
:100D00005A60124B1B6800221A607B683B603B688C
:100D1000FA68D21A3B685A600C4B1A683B681A6032
:100D20003B685B680A4A13603B685B68094A13606A
:100D3000094B4FF000421A6000BF1437BD4680BC1B
:100D4000704700BF54000020544400205C44002041
:100D500064440020604400207044002080B485B0CA
:100D600000AF7860274BFB6002E0FB681B68FB600C
:100D7000FB681B687A689A42F7D8FB68BB60FB681F
:100D80005B68BA6813447A689A4208D1FB685A686B
:100D90007B685B681A44FB685A60FB687B607B6811
:100DA000BB607B685B68BA681A44FB681B689A4240
:100DB00018D1FB681A68144B1B689A420DD07B68E7
:100DC0005A68FB681B685B681A447B685A60FB685A
:100DD0001B681A687B681A6008E00B4B1A687B680E
:100DE0001A6003E0FB681A687B681A60FA687B681F
:100DF0009A4202D0FB687A681A6000BF1437BD4679
:100E000080BC7047544400205C44002080B483B010
:100E100000AF78607B6803F108027B685A607B68EA
:100E20004FF6FF721A817B6803F108027B68DA6073
:100E30007B6803F108027B681A617B6800221A60F4
:100E400000BF0C37BD4680BC704780B483B000AF94
:100E500078607B6800221A6100BF0C37BD4680BCF9
:100E6000704780B485B000AF786039607B685B689C
:100E7000FB603B68FA685A60FB689A683B689A6056
:100E8000FB689B683A685A60FB683A689A603B68FE
:100E90007A681A617B681B685A1C7B681A6000BFFD
:100EA0001437BD4680BC704780B485B000AF786011
:100EB00039603B681B887B817B894FF6FF729342C8
:100EC00003D17B681B69FB600CE07B680833FB6027
:100ED00002E0FB685B68FB60FB685B681B887A89E3
:100EE0009A42F6D2FB685A683B685A603B685B6876
:100EF0003A689A603B68FA689A60FB683A685A6098
:100F00003B687A681A617B681B685A1C7B681A60A8
:100F100000BF1437BD4680BC704780B485B000AFB9
:100F200078607B681B69FB607B685B687A689268A5
:100F30009A607B689B687A6852685A60FB685B6855
:100F40007A689A4203D17B689A68FB685A607B682A
:100F500000221A61FB681B685A1EFB681A60FB6856
:100F60001B6818461437BD4680BC704780B485B0F6
:100F700000AFF860B9607A60FB68043BFB60FB6817
:100F80004FF080721A60FB68043BFB60BB6823F083
:100F90000102FB681A60FB68043BFB60084AFB68BF
:100FA0001A60FB68143BFB607A68FB681A60FB6898
:100FB000203BFB60FB6818461437BD4680BC704779
:100FC000C50F000880B483B000AF00233B604FF032
:100FD000500383F31188BFF36F8FBFF34F8F7B6094
:100FE00000BF3B68002BFCD000BF0C37BD4680BC67
:100FF000704700000000000000000000000000003A
:10100000074B19680868B0E8F00F80F30988BFF350
:101010006F8F4FF0000080F311884EF00D0E704777
:101020007C44002000BF00BF06480068006880F3D1
:10103000088862B661B6BFF34F8FBFF36F8F00DFD2
:1010400000BF000008ED00E000BF00BF80B584B025
:1010500000AF294BFB60FB681B78DBB2BB60FB6811
:10106000FF221A70FB681B78DBB2FB71FB79DBB2E5
:1010700003F05003DAB2214B1A70214B07221A6099
:1010800009E01F4B1B68013B1D4A1360FB79DBB273
:101090005B00DBB2FB71FB79DBB203F08003802BDA
:1010A000EFD0174B1B681B02154A1360144B1B68CB
:1010B00003F4E063124A1360BB68DAB2FB681A708B
:1010C000104B1B680F4A43F4700313600D4B1B68F1
:1010D0000C4A43F07043136000F08EF80A4B002274
:1010E0001A60FFF7A1FF01F0B7FBFFF76BFF0023CA
:1010F00018461037BD4680BD00E400E0744400206F
:101100007844002020ED00E00000002080B483B08F
:1011100000AF4FF0500383F31188BFF36F8FBFF31D
:101120004F8F7B60044B1B680133034A136000BF81
:101130000C37BD4680BC70470000002080B483B0EF
:1011400000AF094B1B68013B074A1360064B1B6845
:10115000002B04D100237B607B6883F3118800BFE0
:101160000C37BD4680BC7047000000200000000026
:10117000EFF30980BFF36F8F0D4B1A6820E9F00F72
:1011800010602DE908404FF0500080F3118801F005
:1011900063FB4FF0000080F31188BDE80840196838
:1011A0000868B0E8F00F80F30988BFF36F8F7047CD
:1011B0007C44002000BF00BF80B582B000AF4FF07C
:1011C000500383F31188BFF36F8FBFF34F8F7B60A2
:1011D00001F096FA0346002B03D0064B4FF08052E5
:1011E0001A6000233B603B6883F3118800BF083717
:1011F000BD4680BD04ED00E080B400AF084B002286
:101200001A60084B00221A60074B41F63F721A60C1
:10121000034B07221A6000BFBD4680BC704700BF69
:1012200010E000E018E000E014E000E080B483B0DB
:1012300000AFEFF305837B607B680F2B04D9054A71
:101240007B6813441B78FB7000BF0C37BD4680BC25
:10125000704700BFF0E300E080B584B000AF786075
:1012600039607B68FB60FFF751FFFB681A68FB6819
:10127000DB6BF968096C01FB03F31A44FB689A60A5
:10128000FB6800229A63FB681A68FB685A60FB6877
:101290001A68FB68DB6B013BF968096C01FB03F31F
:1012A0001A44FB68DA60FB68FF2283F84420FB687D
:1012B000FF2283F845203B68002B14D1FB681B6993
:1012C000002B1AD0FB681033184601F043FB03468D
:1012D000002B12D00C4B4FF080521A60BFF34F8F8F
:1012E000BFF36F8F09E0FB6810331846FFF78EFDE0
:1012F000FB6824331846FFF789FDFFF71FFF012322
:1013000018461037BD4680BD04ED00E080B58AB0B8
:1013100002AFF860B9601346FB71FB68BA6802FB64
:1013200003F3FB61FB6950331846FFF7C7FBB86155
:10133000BB69002B0DD0BB697B617B6950337B613E
:10134000FA79BB69009313467A69B968F86800F0C6
:1013500005F8BB6918462037BD4680BD80B584B00E
:1013600000AFF860B9607A60FB70BB68002B03D1F6
:10137000BB69BA691A6002E0BB697A681A60BB6926
:10138000FA68DA63BB69BA681A640121B869FFF7C1
:1013900063FFBB69FA7883F84C2000BF1037BD4665
:1013A00080BD000080B58AB000AFF860B9603B60D6
:1013B0001346FB8000237B62FB683B62FFF7A6FEBF
:1013C0003B6A9A6B3B6ADB6B9A4202D33B68022B07
:1013D00029D13A68B968386A00F092F9F8613B6A35
:1013E0005B6A002B10D03B6A2433184601F0B2FA36
:1013F0000346002B13D0404B4FF080521A60BFF3CE
:101400004F8FBFF36F8F0AE0FB69002B07D03A4B79
:101410004FF080521A60BFF34F8FBFF36F8FFFF70B
:101420008DFE012363E0FB88002B03D1FFF786FECE
:1014300000235CE07B6A002B06D107F114031846F9
:1014400001F0F6FA01237B62FFF778FE00F0F2FF6D
:10145000FFF75CFE3B6A93F844305BB2B3F1FF3FA9
:1014600003D13B6A002283F844203B6A93F845305D
:101470005BB2B3F1FF3F03D13B6A002283F8452002
:10148000FFF75CFEBA1D07F114031146184601F080
:10149000E5FA0346002B24D1386A00F029FA034606
:1014A000002B18D03B6A1033FA881146184601F019
:1014B00019FA386A00F0B4F900F0CAFF0346002BAD
:1014C0007FF47CAF0C4B4FF080521A60BFF34F8F0C
:1014D000BFF36F8F72E7386A00F0A2F900F0B8FF2F
:1014E0006CE7386A00F09CF900F0B2FF0023184660
:1014F0002837BD4680BD00BF04ED00E080B58CB04C
:1015000000AFF860B9607A603B60FB68BB62FFF7D0
:101510008DFEEFF311824FF0500383F31188BFF378
:101520006F8FBFF34F8FBA617B61BB697B62BB6A10
:101530009A6BBB6ADB6B9A4202D33B68022B2FD1BA
:10154000BB6A93F8453087F82330BB6A9B6BFB611D
:101550003A68B968B86A00F0D3F897F92330B3F164
:10156000FF3F12D1BB6A5B6A002B16D0BB6A2433E3
:10157000184601F0EFF90346002B0ED07B68002BD4
:101580000BD07B6801221A6007E097F82330013303
:10159000DBB25AB2BB6A83F845200123FB6201E04B
:1015A0000023FB627B6A3B613B6983F31188FB6A22
:1015B00018463037BD4680BD80B58AB000AFF860B0
:1015C000B9601346FB8000237B62FB683B62FFF738
:1015D0009DFD3B6A9B6BFB61FB69002B1FD0B968CB
:1015E000386A00F0F7F8FB695A1E3B6A9A633B6A57
:1015F0001B69002B0FD03B6A1033184601F0AAF983
:101600000346002B07D03D4B4FF080521A60BFF3CA
:101610004F8FBFF36F8FFFF791FD012369E0FB88C8
:10162000002B03D1FFF78AFD002362E07B6A002BC9
:1016300006D107F11403184601F0FAF901237B6281
:10164000FFF77CFD00F0F6FEFFF760FD3B6A93F8C4
:1016500044305BB2B3F1FF3F03D13B6A002283F811
:1016600044203B6A93F845305BB2B3F1FF3F03D1AE
:101670003B6A002283F84520FFF760FDBA1D07F1A1
:1016800014031146184601F0E9F90346002B23D153
:10169000386A00F017F90346002B17D03B6A243351
:1016A000FA881146184601F01DF9386A00F0B8F8BA
:1016B00000F0CEFE0346002B89D1104B4FF0805234
:1016C0001A60BFF34F8FBFF36F8F80E7386A00F067
:1016D000A7F800F0BDFE7AE7386A00F0A1F800F044
:1016E000B7FE386A00F0EEF80346002B3FF46FAF08
:1016F000002318462837BD4680BD00BF04ED00E03A
:1017000080B586B000AFF860B9607A6000237B6175
:10171000FB689B6B3B61FB681B6C002B0DD1FB686E
:101720001B68002B4DD1FB689B68184601F08CFAB2
:101730007861FB6800229A6043E07B68002B19D136
:10174000FB685868FB681B6C1A46B96803F098FD83
:10175000FB685A68FB681B6C1A44FB685A60FB689C
:101760005A68FB689B689A422BD3FB681A68FB682F
:101770005A6026E0FB68D868FB681B6C1A46B9689B
:1017800003F07EFDFB68DA68FB681B6C5B421A4461
:10179000FB68DA60FB68DA68FB681B689A4207D26C
:1017A000FB689A68FB681B6C5B421A44FB68DA6052
:1017B0007B68022B05D13B69002B02D03B69013BC2
:1017C0003B613B695A1CFB689A637B691846183772
:1017D000BD4680BD80B582B000AF786039607B685F
:1017E0001B6C002B18D07B68DA687B681B6C1A4472
:1017F0007B68DA607B68DA687B689B689A4203D30F
:101800007B681A687B68DA607B68D9687B681B6CC8
:101810001A46386803F034FD00BF0837BD4680BD66
:1018200080B584B000AF7860FFF770FC7B6893F8F8
:101830004530FB7311E07B685B6A002B12D07B683C
:101840002433184601F086F80346002B01D001F03E
:1018500051F9FB7B013BDBB2FB7397F90F30002B97
:10186000E9DC00E000BF7B68FF2283F84520FFF73A
:1018700065FCFFF74BFC7B6893F84430BB7311E0C9
:101880007B681B69002B12D07B681033184601F06F
:1018900061F80346002B01D001F02CF9BB7B013B22
:1018A000DBB2BB7397F90E30002BE9DC00E000BF20
:1018B0007B68FF2283F84420FFF740FC00BF10370D
:1018C000BD4680BD80B584B000AF7860FFF71EFCD8
:1018D0007B689B6B002B02D10123FB6001E000239E
:1018E000FB60FFF72BFCFB6818461037BD4680BD38
:1018F00080B584B000AF7860FFF708FC7B689A6B16
:101900007B68DB6B9A4202D10123FB6001E000237C
:10191000FB60FFF713FCFB6818461037BD4680BD1F
:1019200080B485B000AF786039600023FB6014E0BC
:101930000E4AFB6852F83330002B0BD10B49FB6881
:101940003A6841F83320094AFB68DB0013447A689F
:101950005A6005E0FB680133FB60FB68012BE7D9A7
:1019600000BF1437BD4680BC704700BFD44500207F
:1019700080B586B000AFF8600B467A607B81FB686B
:101980007B61FFF7C3FB7B6993F844305BB2B3F133
:10199000FF3F03D17B69002283F844207B6993F8E1
:1019A00045305BB2B3F1FF3F03D17B69002283F87E
:1019B0004520FFF7C3FB7B699B6B002B06D17B693E
:1019C000243379897A68184600F0A4FF7869FFF714
:1019D00027FF00BF1837BD4680BD80B588B002AF75
:1019E000F860B9607A607B68012B02D10123FB7437
:1019F00001E00023FB74BB68002B01D10123BB6015
:101A0000FB6813F1260F09D8FB680133FB60FB6804
:101A100024331846FFF752F8786101E000237B6118
:101A20007B69002B09D07B6903F12401FB7C0093C7
:101A3000BB68FA68786900F041FA7B691846183784
:101A4000BD4680BD80B485B000AF78607B68BB6068
:101A5000BB689A68BB681B681344FB60BB685B6823
:101A6000FA68D31AFB60FB68013BFB60BB689B68AC
:101A7000FA689A4204D3BB689B68FA68D31AFB6081
:101A8000FB6818461437BD4680BC704780B58EB0E1
:101A900002AFF860B9607A607B80FB687B620023EC
:101AA000FB627B68BB627B6A9B68013B3B627B6A33
:101AB0001B7F03F00103002B09D0BB6A0433BB6218
:101AC000BA6A3B6A9A4208D900237B8005E0BA6A69
:101AD0003B6A9A4201D93B6ABB627B88002B32D0B9
:101AE00007F11403184600F089FFFFF70FFB786A2F
:101AF000FFF7A8FFF862FA6ABB6A9A4209D200218E
:101B0000002001F01BFA01F073F802467B6A5A616B
:101B100002E0FFF713FB16E0FFF710FB7B88009352
:101B2000002300220021002001F0EAF87B6A002255
:101B30005A61BA1C07F114031146184600F08EFFD3
:101B40000346002BD1D0FB6A002B03D1786AFFF744
:101B500079FFF862BB6A0093FB6A7A68B968786AB1
:101B600000F025F8F861FB69002B1BD0786A00F0C3
:101B700086F902467B6ADB689A4213D300F05AFC6E
:101B80007B6A1B69002B0BD07B6A186900230093CA
:101B900000230022002101F02BF97B6A00221A6148
:101BA00000F056FCFB6918463037BD4680BD80B555
:101BB00086B000AFF860B9607A603B603B68002B8C
:101BC00002D100237B611DE0FB681B7F03F0010352
:101BD000002B08D101237B617A683B68934228BFC0
:101BE00013467B600EE03A683B6A9A4208D30123B1
:101BF0007B613B1D04221946F86800F0B6F801E04D
:101C000000237B617B69002B07D07B681A46B9688B
:101C1000F86800F0AAF8386101E000233B613B69F5
:101C200018461837BD4680BD80B58AB002AFF8604F
:101C3000B9607A607B80FB683B610023FB613B6994
:101C40001B7F03F00103002B02D004237B6101E022
:101C500000237B617B88002B28D0FFF757FA386977
:101C600000F00DF9B861BA697B699A4208D8002181
:101C7000002001F063F900F0BBFF02463B691A61E6
:101C8000FFF75CFABA697B699A4213D87B880093A4
:101C9000002300220021002001F032F83B690022DD
:101CA0001A61386900F0EBF8B86103E0386900F0B8
:101CB000E6F8B861BA697B699A421FD97B690093DB
:101CC000BB697A68B968386900F01DF8F861FB698A
:101CD000002B13D000F0AEFB3B695B69002B0BD0EF
:101CE0003B6958690023009300230022002101F082
:101CF0007FF83B6900225A6100F0AAFBFB69184695
:101D00002037BD4680BD80B588B000AFF860B960AF
:101D10007A603B60BB6A002B19D0FB681B68BB6113
:101D200007F110013B68BA6AF86800F05EF83B6999
:101D3000FB613A68BB6AD31A3B60FA697B689A42D6
:101D400007D9FB68BA691A600023FB6101E07B6870
:101D5000FB613B68FA69B968F86800F046F8786199
:101D60007B6918462037BD4680BD80B586B000AF80
:101D7000F860B9607A60FB685B687B61FB689A68B1
:101D80007B69D31A7A68934228BF13463B61FB688C
:101D90009A697B6913443A69B968184603F070FA86
:101DA0007A683B699A420AD9FB689869BA683B69C4
:101DB000D1187A683B69D31A1A4603F061FA7A6936
:101DC0007B6813447B61FB689B687A699A4204D301
:101DD000FB689B687A69D31A7B61FB687A695A60F1
:101DE0007B6818461837BD4680BD80B588B000AF07
:101DF000F860B9607A603B607A683B68934228BFBC
:101E00001346BB61BB69002B34D0FB681B68FB61C8
:101E1000FB689A68FB69D31ABA69934228BF1346D4
:101E20007B61FB689A69FB6913447A691946B86853
:101E300003F026FABA697B699A420AD9BA687B69C3
:101E4000D018FB689969BA697B69D31A1A4603F0FE
:101E500017FAFA69BB691344FB61FB689B68FA696E
:101E60009A4204D3FB689B68FA69D31AFB61FB684A
:101E7000FA691A60BB6918462037BD4680BD80B438
:101E800085B000AF78607B689A687B685B681344B4
:101E9000FB607B681B68FA68D31AFB607B689B68F1
:101EA000FA689A4204D37B689B68FA68D31AFB608D
:101EB000FB6818461437BD4680BC704780B586B0B5
:101EC00000AFF860B9607A603B6055237B612422E3
:101ED0000021F86803F0DFF9FB68BA689A61FB68D3
:101EE0007A689A60FB683A68DA60FB6897F82020A5
:101EF0001A7700BF1837BD4680BD80B58CB004AFDF
:101F0000F860B9603B601346FB80FB889B00184675
:101F1000FEF7D4FD78617B69002B0ED05C20FEF7C4
:101F2000CDFDF861FB69002B03D0FB697A691A6368
:101F300005E07869FEF770FE01E00023FB61FB69B4
:101F4000002B13D0FA8800230393FB690293FB6AEA
:101F50000193BB6A00933B68B968F86800F00EF81B
:101F6000F86900F093F80123BB6102E04FF0FF3302
:101F7000BB61BB6918462037BD4680BD80B586B0C1
:101F800000AFF860B9607A603B60BB6A186B7B6831
:101F90009B001A46A52103F07EF9BB6A1A6B7B6889
:101FA00003F18043013B9B0013443B613B6923F0F9
:101FB00007033B61BB68002B1FD000237B6112E04D
:101FC000BA687B6913441978BA6A7B69134434335D
:101FD0000A461A70BA687B6913441B78002B06D036
:101FE0007B6901337B617B690F2BE9D900E000BF7E
:101FF000BB6A002283F8432003E0BB6A002283F817
:1020000034203B6A032B01D903233B62BB6A3A6A43
:10201000DA62BB6A3A6ADA64BB6A00221A65BB6A92
:1020200004331846FEF711FFBB6A18331846FEF753
:102030000CFFBB6ABA6A1A613B6A9BB2C3F1040324
:102040009AB2BB6A1A83BB6ABA6A5A62BB6A5433D1
:1020500004220021184603F01EF9BB6A58330122FE
:102060000021184603F017F93A68F9683869FEF755
:102070007DFF0246BB6A1A607B6A002B02D07B6A36
:10208000BA6A1A6000BF1837BD4680BD80B582B0FD
:1020900000AF7860FFF73AF82C4B1B6801332B4AEE
:1020A00013602B4B1B68002B09D1294A7B681360F6
:1020B000264B1B68012B10D100F040FD0DE0254B95
:1020C0001B68002B09D1224B1B68DA6A7B68DB6A2C
:1020D0009A4202D81E4A7B6813601F4B1B6801336B
:1020E0001D4A13601C4B1A687B685A647B68DB6A64
:1020F00001229A40194B1B681343184A13607B68EE
:10210000DA6A13469B0013449B00154A1A447B6805
:10211000043319461046FEF7A4FEFFF70FF80D4BE7
:102120001B68002B0ED00A4B1B68DA6A7B68DB6ADF
:102130009A4207D20B4B4FF080521A60BFF34F8F79
:10214000BFF36F8F00BF0837BD4680BD2845002014
:102150007C440020344500204445002030450020C8
:102160008044002004ED00E080B584B000AF034659
:10217000FB800023FB60FB88002B09D000F05AF99C
:10218000FB880021184600F005FF00F061F9F860B7
:10219000FB68002B07D1064B4FF080521A60BFF34B
:1021A0004F8FBFF36F8F00BF1037BD4680BD00BF9C
:1021B00004ED00E080B584B000AF7860FEF7A6FFC4
:1021C0007B68002B02D13B4B1B6800E07B68BB6047
:1021D000BB6804331846FEF7A0FE0346002B15D15A
:1021E000BB68DA6A344913469B0013449B000B44D6
:1021F0001B68002B0AD1BB68DB6A012202FA03F3D9
:10220000DA432E4B1B6813402C4A1360BB689B6A51
:10221000002B04D0BB6818331846FEF77EFEBB685F
:10222000043319462648FEF71CFE0023FB6010E02D
:10223000BA68FB68134458331B78DBB2012B05D115
:10224000BA68FB681344583300221A70FB680133E4
:10225000FB60FB68002BEBDDFEF770FF194B1B6882
:10226000002B05D0FEF752FF00F0A8FCFEF766FF3A
:10227000104B1B68BA689A4218D1124B1B68002B8E
:1022800008D0114B4FF080521A60BFF34F8FBFF34D
:102290006F8F0BE00A4B1A680C4B1B689A4203D1F4
:1022A000044B00221A6001E000F0D6FA00BF10379C
:1022B000BD4680BD7C440020804400203045002085
:1022C000144500203445002004ED00E0284500209E
:1022D00080B485B000AF78600023FB607B68BB6092
:1022E000BB685B69094A93420AD1BB689B6A084A8A
:1022F000934205D0BB689B6A002B01D10123FB6090
:10230000FB6818461437BD4680BC70471445002052
:102310000045002080B584B000AF78607B68FB602A
:10232000204B1B68FA689A4237D0FB68002B34D0E8
:10233000FEF7ECFEF868FFF7CBFF0346002B2AD030
:10234000FB6804331846FEF7E8FDFB68DB6A0122F0
:102350009A40154B1B681343134A1360FB68DA6AF3
:1023600013469B0013449B00104A1A44FB68043335
:1023700019461046FEF775FDFB68DA6A094B1B68C3
:10238000DB6A9A4207D30A4B4FF080521A60BFF3C0
:102390004F8FBFF36F8FFEF7D1FE00BF1037BD46E2
:1023A00080BD00BF7C4400203045002080440020D8
:1023B00004ED00E080B584B002AF174B0193002319
:1023C00000930023802215491548FFF796FD786099
:1023D0007B68012B02D100F045FE78607B68012B01
:1023E00014D14FF0500383F31188BFF36F8FBFF305
:1023F0004F8F3B600B4B4FF6FF721A800A4B012246
:102400001A600A4B00221A80FEF720FE084B1B6858
:1024100000BF0837BD4680BD4C450020B8550008B8
:102420000D2B000848450020344500202C45002095
:102430000400002080B400AF044B1B680133034A42
:10244000136000BFBD4680BC704700BF50450020F0
:1024500080B584B000AF0023FB600023BB60FEF7B3
:1024600055FE394B1B68013B374A1360364B1B68DE
:10247000002B61D1354B1B68002B5DD02EE0344B17
:10248000DB68DB68FB60FB6818331846FEF745FD28
:10249000FB6804331846FEF740FDFB68DB6A012247
:1024A0009A402C4B1B6813432A4A1360FB68DA6A74
:1024B00013469B0013449B00274A1A44FB680433CD
:1024C00019461046FEF7CDFCFB68DA6A234B1B6801
:1024D000DB6A9A4202D3224B01221A601C4B1B6812
:1024E000002BCCD1FB68002B01D000F067FB1D4B0B
:1024F0001B88FB80FB88002B10D000F001F90346FD
:10250000002B02D0164B01221A60FB88013BFB8096
:10251000FB88002BF1D1134B00221A80104B1B6853
:10252000002B09D00123BB600F4B4FF080521A6083
:10253000BFF34F8FBFF36F8FFEF700FEBB681846E7
:102540001037BD4680BD00BF504500202845002003
:102550000045002030450020804400207C440020BD
:102560003C4500203845002004ED00E080B582B0F5
:1025700000AFFEF7CBFD054B1B88FB80FEF7DEFDB1
:10258000FB8818460837BD4680BD00BF2C4500209B
:1025900080B48BB000AF7860396000237B627B68C9
:1025A0001B68002B5BD07B68BB61BB695B685A68AA
:1025B000BB695A60BB695A68BB6908339A4204D147
:1025C000BB695B685A68BB695A60BB695B68DB685A
:1025D0007B617B683B613B695B685A683B695A6019
:1025E0003B695A683B6908339A4204D13B695B688E
:1025F0005A683B695A603B695B68DB68FB60002393
:10260000FB6100233B621CE0FA683B6A13443433ED
:102610001B78FB723A683B6A13441B78FA7A9A4239
:1026200002D00123FB6106E0FB7A002B03D1FB689B
:102630007B620123FB61FB69002B06D13B6A0133FE
:102640003B623B6A0F2BDFD900E000BF7B6A002BA7
:1026500004D1FA687B699A42BBD100E000BF7B6A73
:1026600018462C37BD4680BC7047000080B584B04A
:1026700000AF78600423FB60FFF7DCFEFB68013BE2
:10268000FB60FA6813469B0013449B00184A1344EE
:1026900079681846FFF77CFFB860BB68002B03D150
:1026A000FB68002BEAD100E000BFBB68002B06D11D
:1026B000104B1B6879681846FFF76AFFB860BB6863
:1026C000002B06D10C4B1B6879681846FFF760FF9A
:1026D000B860BB68002B04D179680848FFF758FF41
:1026E000B860FFF7B5FEBB6818461037BD4680BD21
:1026F00080440020F8440020FC44002014450020C1
:1027000080B586B000AF00237B61484B1B68002B6F
:102710007FD1474B1B889BB201337B82444A7B8A23
:1027200013807B8A002B10D1424B1B68FB60424B0D
:102730001B68404A1360404AFB6813603F4B1B68AC
:1027400001333E4A136000F039FA3D4B1B889BB2BF
:102750007A8A9A4248D3374B1B681B68002B04D1F6
:10276000374B4FF6FF721A803EE0324B1B68DB6836
:10277000DB68BB60BB689B88FB807A8AFB889A42D7
:1027800003D22F4AFB8813802EE0BB68043318461F
:10279000FEF7C3FBBB689B6A002B04D0BB681833F1
:1027A0001846FEF7BAFBBB68DB6A01229A40254B4C
:1027B0001B681343234A1360BB68DA6A13469B0005
:1027C00013449B00204A1A44BB6804331946104640
:1027D000FEF747FBBB68DA6A1C4B1B68DB6A9A4250
:1027E000B9D301237B61B6E7184B1B68DA6A164937
:1027F00013469B0013449B000B441B68012B01D91B
:1028000001237B61124B1B68002B09D001237B61E4
:1028100006E0104B1B889BB201339AB20D4B1A8015
:102820007B6918461837BD4680BD00BF5045002063
:102830002C450020F8440020FC44002040450020A6
:102840004845002030450020804400207C44002082
:102850003C4500203845002080B485B000AF1C4BBB
:102860001B68002B03D01B4B01221A602AE0194B76
:1028700000221A60184B1B687B607B68B3FA83F3F5
:10288000FB70FB78C3F11F03FB60FA6813469B00E3
:1028900013449B00114A1344BB60BB685B685A68D1
:1028A000BB685A60BB685A68BB6808339A4204D157
:1028B000BB685B685A68BB685A60BB685B68DB686A
:1028C000074A136000BF1437BD4680BC704700BF85
:1028D000504500203C450020304500208044002029
:1028E0007C44002080B582B000AF78600B467B80CE
:1028F000074B1B68183319467868FEF7D5FA7B88B2
:102900000121184600F046FB00BF0837BD4680BDD8
:102910007C44002080B584B000AFF8600B467A603C
:102920007B810B4B1B6818331946F868FEF799FA40
:102930007B68002B02D04FF6FF737B817B8979681F
:10294000184600F027FB00BF1037BD4680BD00BF12
:102950007C44002080B584B000AF78607B68DB6881
:10296000DB68BB60BB6818331846FEF7D6FA1D4B10
:102970001B68002B1CD1BB6804331846FEF7CDFA48
:10298000BB68DB6A01229A40174B1B681343164A47
:102990001360BB68DA6A13469B0013449B00134A1A
:1029A0001A44BB68043319461046FEF75AFA05E08C
:1029B000BB68183319460E48FEF753FABB68DA6A4B
:1029C0000C4B1B68DB6A9A4205D90123FB600A4B5A
:1029D00001221A6001E00023FB60FB6818461037F3
:1029E000BD4680BD50450020304500208044002079
:1029F000004500207C4400203C45002080B582B08A
:102A000000AF7860FEF782FB074B1A687B681A609C
:102A1000064B1B889AB27B689A80FEF78FFB00BF3B
:102A20000837BD4680BD00BF404500202C45002032
:102A300080B483B000AF7860064B1A687B681A6078
:102A4000054B1B889AB27B689A8000BF0C37BD4645
:102A500080BC7047404500202C45002080B584B0E4
:102A600000AF78603960FEF751FB204B1B887B81FB
:102A70007B689B887A89D31A3B813B681B884FF619
:102A8000FF72934202D10023FB6027E07B681A6843
:102A9000174B1B689A420AD07B689B887A899A42B6
:102AA00005D30123FB603B6800221A8016E03B68D7
:102AB0001B883A899A420CD23B681A883B89D31A00
:102AC0009AB23B681A807868FFF7B2FF0023FB6078
:102AD00004E03B6800221A800123FB60FEF72EFB16
:102AE000FB6818461037BD4680BD00BF2C4500204E
:102AF0004045002080B400AF034B01221A6000BFA4
:102B0000BD4680BC704700BF3C45002080B582B008
:102B100000AF786000F04CF8064B1B68012BF9D928
:102B2000054B4FF080521A60BFF34F8FBFF36F8F8A
:102B3000F0E700BF8044002004ED00E080B582B0E3
:102B400000AF00237B600CE07A6813469B001344BF
:102B50009B00104A13441846FEF758F97B6801336E
:102B60007B607B68032BEFD90B48FEF74FF90B48CE
:102B7000FEF74CF90A48FEF749F90A48FEF746F90C
:102B8000094B054A1A60094B044A1A6000BF08370E
:102B9000BD4680BD80440020D0440020E444002095
:102BA0000045002014450020F8440020FC4400208B
:102BB00080B400AF00BFBD4680BC704780B400AF9A
:102BC000094B1B681B68002B04D1084B4FF6FF72A2
:102BD0001A8005E0044B1B68DB681A88034B1A80D7
:102BE00000BFBD4680BC7047F84400204845002027
:102BF00080B483B000AF044B1B687B607B681846D1
:102C00000C37BD4680BC70477C44002080B483B044
:102C100000AF0B4B1B68002B02D101237B6008E047
:102C2000084B1B68002B02D102237B6001E00023CC
:102C30007B607B6818460C37BD4680BC704700BF80
:102C4000344500205045002080B584B000AF786046
:102C50007B68BB600023FB607B68002B46D0BB68B1
:102C60001B6D5A1EBB681A65BB68DA6ABB68DB6CF1
:102C70009A423BD0BB681B6D002B37D1BB68043335
:102C80001846FEF74AF90346002B0AD1BB68DB6AF7
:102C9000012202FA03F3DA43174B1B681340164A6A
:102CA0001360BB68DA6CBB68DA62BB68DB6A9BB234
:102CB000C3F104039AB2BB681A83BB68DB6A0122C2
:102CC0009A400D4B1B6813430B4A1360BB68DA6ACA
:102CD00013469B0013449B00084A1A44BB68043304
:102CE00019461046FEF7BDF80123FB60FB68184645
:102CF0001037BD4680BD00BF304500208044002015
:102D000080B586B000AFF860B9607A603B60FEF7CE
:102D1000FDF9354B1A68FB68134458331B78DBB256
:102D2000022B25D0304B1A68FB6814339B001344E8
:102D30005968BB68DB431940FB6814339B0013449C
:102D40005960294B1A68FB681344583301221A70E2
:102D50003B8C002B0CD03B8C0121184600F01AF95B
:102D6000224B4FF080521A60BFF34F8FBFF36F8F2B
:102D7000FEF7E4F9FEF7CAF93B68002B08D01A4BBE
:102D80001A68FB6814339B0013445A683B681A6046
:102D9000154B1A68FB68134458331B78DBB2022BBF
:102DA00002D000237B6110E00F4B1A68FB681433DC
:102DB0009B00134459687B68DB431940FB6814335C
:102DC0009B001344596001237B61074B1A68FB6821
:102DD0001344583300221A70FEF7B0F97B69184685
:102DE0001837BD4680BD00BF7C44002004ED00E0E4
:102DF00080B588B000AFF860B9607A60FB700123DD
:102E0000FB61FB68BB61FEF781F9BB6A002B07D051
:102E1000BA69BB6814339B0013445A68BB6A1A60D2
:102E2000BA69BB68134458331B78FB75BA69BB6831
:102E30001344583302221A70FB78042B3FD801A2A6
:102E400052F823F0BF2E0008592E0008772E0008F4
:102E5000932E0008A32E0008BA69BB6814339B00A8
:102E600013445A687B681A43B969BB6814339B00E2
:102E70000B445A6024E0BA69BB6814339B001344C6
:102E80005B685A1CB969BB6814339B000B445A60D9
:102E900016E0BA69BB6814339B0013447A685A6021
:102EA0000EE0FB7D022B07D0BA69BB6814339B0090
:102EB00013447A685A6003E00023FB6100E000BF1E
:102EC000FB7D012B2AD1BB6904331846FEF725F898
:102ED000BB69DB6A01229A40144B1B681343134AF7
:102EE0001360BB69DA6A13469B0013449B00104AC7
:102EF0001A44BB69043319461046FDF7B2FFBB699B
:102F0000DA6A0C4B1B68DB6A9A4207D90A4B4FF00E
:102F100080521A60BFF34F8FBFF36F8FFEF70EF929
:102F2000FB6918462037BD4680BD00BF30450020F4
:102F3000804400207C44002004ED00E080B584B093
:102F400000AF786039607B68002B02D1104B1B68A2
:102F500000E07B68BB60FEF7D9F8BA683B681344B1
:102F600058331B78DBB2022B08D1BA683B68134494
:102F7000583300221A700123FB6001E00023FB603C
:102F8000FEF7DCF8FB6818461037BD4680BD00BF71
:102F90007C44002080B584B000AF03463960FB80DC
:102FA000294B1B88FB81294B1B6804331846FDF70E
:102FB000B4FF0346002B0BD1244B1B68DB6A0122B4
:102FC00002FA03F3DA43224B1B681340204A1360D2
:102FD000FB884FF6FF7293420AD13B68002B07D063
:102FE0001A4B1B68043319461A48FDF73AFF27E0CD
:102FF000FA89FB881344BB81144B1B68BA899A80F9
:10300000BA89FB899A4209D2134B1A680F4B1B6885
:10301000043319461046FDF747FF11E00F4B1A68BD
:103020000A4B1B68043319461046FDF73DFF0C4B55
:103030001B889BB2BA899A4202D2094ABB89138083
:1030400000BF1037BD4680BD2C4500207C440020C9
:103050003045002014450020FC440020F8440020A6
:103060004845002080B584B002AF00237B6000F0AB
:1030700095FA0A4B1B68002B0BD0094B01930323D5
:10308000009300234FF4807206490748FEF735FF8E
:1030900078607B6818460837BD4680BD84450020AF
:1030A00088450020C0550008B531000880B588B0BB
:1030B00000AFF860B9603B601346FB800023FB6102
:1030C000194B1B68002B2AD0BB683B61FB88BB8275
:1030D000FB68BB61BB68052B18DCFFF797FD034657
:1030E000022B09D1104B18683A8D07F1100100230B
:1030F000FEF758F9F86112E00B4B186807F1100160
:1031000000230022FEF74EF9F86108E0064B18682C
:1031100007F1100100233A68FEF7F0F9F861FB6946
:1031200018462037BD4680BD8445002080B586B056
:1031300002AF03460A46FB801346BB801C4B1B684C
:10314000DB68DB68FB60FB6804331846FDF7E5FECF
:10315000FB6893F8283003F00403002B16D0FB68BB
:103160001A8BFB88134499B2FB88BA88F86800F080
:10317000C9F80346002B12D0FA88002300930023DD
:103180000021F868FFF792FFB86008E0FB6893F849
:10319000283023F00103DAB2FB6883F82820FB68AB
:1031A0001B6AF868984700BF1037BD4680BD00BF56
:1031B0007C45002080B584B000AF786007F108033B
:1031C000184600F05DF80346FB81BA68FB8911469A
:1031D000184600F003F800F0DFF8EFE780B584B0A0
:1031E00000AF03463960FB80FFF724F907F10803BD
:1031F000184600F067F80346FB81BB68002B33D10B
:103200003B68002B0CD1FA88FB899A4208D8FFF75B
:103210001FF9FA89FB8811461846FFF787FF25E05A
:103220003B68002B08D0134B1B681B68002B01D197
:10323000012300E000233B600F4B1868FA88FB89EC
:10324000D31A9BB23A681946FEF792FBFFF700F9D2
:103250000346002B0AD1094B4FF080521A60BFF38E
:103260004F8FBFF36F8F01E0FFF7F2F800BF103709
:10327000BD4680BD804500208445002004ED00E06F
:1032800080B485B000AF78600D4B1B681B68002BC5
:1032900001D1012200E000227B681A607B681B6874
:1032A000002B05D1064B1B68DB681B88FB8101E006
:1032B0000023FB81FB8918461437BD4680BC70474C
:1032C0007C45002080B584B000AF7860FFF74EF9F0
:1032D0000346FB810A4B1B88FA899A4205D200F00B
:1032E00007F97B6801221A6002E07B6800221A60FD
:1032F000034AFB891380FB8918461037BD4680BD01
:103300008C45002080B586B000AFF86008461146B5
:103310001A4603467B810B463B811346FB80002304
:103320007B61FB687A899A80FB68FA681A617A89FE
:103330003B899A4213D83A89FB88D31A9AB2FB6820
:103340001B8B9A4202D301237B611BE0104B1A684E
:10335000FB68043319461046FDF7A6FD12E03A89D2
:10336000FB889A4206D27A89FB889A4202D30123CB
:103370007B6107E0074B1A68FB6804331946104667
:10338000FDF792FD7B6918461837BD4680BD00BF2A
:10339000804500207C45002080B58AB002AF95E0D2
:1033A000BB68002BC0F291803B69FB61FB695B69E4
:1033B000002B04D0FB6904331846FDF7AEFD3B1D1E
:1033C0001846FFF77FFF03467B83BB68092B7DD838
:1033D00001A252F823F000BF0134000801340008B4
:1033E000013400085F34000873340008A134000879
:1033F00001340008013400085F3400087334000809
:10340000FB6993F8283043F00103DAB2FB6983F8D3
:103410002820BA89FB691B8B134499B2BB897A8B2C
:10342000F869FFF76FFF0346002B4FD0FB691B6A5B
:10343000F8699847FB6993F8283003F00403002BE0
:1034400044D0BA89FB691B8B13449AB200230093C2
:1034500000230021F869FFF729FE786136E0FB6957
:1034600093F8283023F00103DAB2FB6983F82820AF
:103470002CE0FB6993F8283043F00103DAB2FB69D2
:1034800083F82820BA89FB691A83FB691A8B7B8B26
:10349000134499B27B8B7A8BF869FFF733FF15E001
:1034A000FB6993F8283003F00203002B03D1F8697D
:1034B000FDF7B2FB0AE0FB6993F8283023F0010323
:1034C000DAB2FB6983F8282000E000BF074B1B68D5
:1034D00007F1080100221846FEF76EF80346002B9C
:1034E0007FF45EAF00BF2037BD4680BD844500201D
:1034F00080B588B002AF3AE0264B1B68DB681B88BA
:103500007B82244B1B68DB68DB68FB60FB68043351
:103510001846FDF702FDFB681B6AF8689847FB68D0
:1035200093F8283003F00403002B20D0FB681A8B9B
:103530007B8A13447B817A897B8A9A420ED9FB6805
:103540007A899A80FB68FA681A61124B1A68FB68DC
:10355000043319461046FDF7A7FC08E07A8A0023D9
:10356000009300230021F868FFF7A0FD7860094B65
:103570001B681B68002BBFD1064B1B687B61064B89
:103580001B68044A1360044A7B69136000BF183744
:10359000BD4680BD7C4500208045002080B500AF41
:1035A000FDF7B4FD124B1B68002B1DD11148FDF730
:1035B0002DFC1148FDF72AFC104B0E4A1A60104BE7
:1035C0000D4A1A6000220C210520FDF79FFE0246DD
:1035D000074B1A60064B1B68002B05D0044B1B6879
:1035E00008491846FEF79CF9FDF7A8FD00BF80BD0D
:1035F0008445002054450020684500207C4500207B
:1036000080450020C855000880B582B000AF002377
:10361000BB710023FB718DE1FA79CB4913465B0046
:103620001344DB009B1A0B441B78012B40F09D8058
:10363000FA79C54913465B001344DB009B1A0B441F
:103640005A789B781B021A43002362F30F0302216E
:10365000184601F0B7F9FA79BB4913465B001344E9
:10366000DB009B1A0B44DA781B791B021A430023F8
:1036700062F30F030221184601F0A4F9FA79B24966
:1036800013465B001344DB009B1A0B445A799B7969
:103690001B021A43002362F30F030221184601F0B4
:1036A00091F9FA79A84913465B001344DB009B1A91
:1036B0000B44DA791B7A1B021A43002362F30F03CF
:1036C0000221184601F07EF9FA799F4913465B0002
:1036D0001344DB009B1A0B4408335A789B781B0277
:1036E0001A43002362F30F030221184601F06AF91E
:1036F000FA79954913465B001344DB009B1A0B448F
:103700000833DA781B791B021A43002362F30F0394
:103710000221184601F056F9FA798B4913465B00ED
:103720001344DB009B1A0B4408335A799B791B0224
:103730001A43002362F30F030221184601F042F9F5
:10374000FA79814913465B001344DB009B1A0B4452
:103750000833DA791B7A1B021A43002362F30F0342
:103760000221184601F02EF95FE0FA7976491346F6
:103770005B001344DB009B1A0B441B78002B50D1D9
:10378000FA79714913465B001344DB009B1A0B4422
:1037900008335A789B781B021A43002362F30F0305
:1037A0000221184601F00EF9FA79674913465B00C9
:1037B0001344DB009B1A0B440833DA781B791B0295
:1037C0001A43002362F30F030221184601F0FAF8AE
:1037D000FA795D4913465B001344DB009B1A0B44E6
:1037E00008335A799B791B021A43002362F30F03B3
:1037F0000221184601F0E6F8FA79534913465B00B6
:103800001344DB009B1A0B440833DA791B7A1B0242
:103810001A43002362F30F030221184601F0D2F885
:1038200003E00323BB71BB7989E0FA79464913466B
:103830005B001344DB009B1A0B441033DA781B79CE
:103840001B021A43002362F30F030221184601F002
:10385000B9F8FA793C4913465B001344DB009B1A24
:103860000B4410335A789B781B021A43002362F3EF
:103870000F030221184601F0A5F8FA7932491346E0
:103880005B001344DB009B1A0B4410335A799B797D
:103890001B021A43002362F30F030221184601F0B2
:1038A00091F8282001F02AFBFA79274913465B009A
:1038B0001344DB009B1A0B441B78012B08D1FB79C6
:1038C00019463C2000F0C0FA012001F017FB1EE071
:1038D000FA791D4913465B001344DB009B1A0B4425
:1038E0001B78002B0FD1FB791946332000F0ACFA7E
:1038F000FB791946322000F0A7FAFB7919462820F7
:1039000000F0A2FA03E00323BB71BB7917E0FB7957
:1039100019460E2000F098FA012001F0EFFAFB7929
:103920001946012000F090FA022001F0E7FAFB7935
:103930000133FB71FB79002B3FF46EAEBB79184667
:103940000837BD4680BD00BF0800002080B584B0A8
:1039500000AF03460A46FB711346BB710023FB739D
:10396000BB79002B40F06682BA79B04913465B0000
:103970001344DB009B1A0B4410335A789B781B02CC
:103980001A43002362F30F030121184601F010F9D6
:10399000BA79A64913465B001344DB009B1A0B441B
:1039A0001033DA781B791B021A43002362F30F03EA
:1039B0000021184601F0FCF8BA799C4913465B00D7
:1039C0001344DB009B1A0B441B78002B40F0308122
:1039D000FB7923F00F03BB73BA79BB7B1B09DBB206
:1039E00003F00103D8B2914913465B001344DB0096
:1039F0009B1A0B4408335A789B781B021A43002306
:103A000062F30F030146184601F0D2F8BA79BB7B86
:103A10005B09DBB203F00103D8B2844913465B00B3
:103A20001344DB009B1A0B440833DA781B791B0222
:103A30001A43002362F30F030146184601F0B8F859
:103A4000BA79BB7B9B09DBB203F00103D8B277499B
:103A500013465B001344DB009B1A0B4408335A796E
:103A60009B791B021A43002362F30F030146184699
:103A700001F09EF8BA79BB7BDB09D8B26B491346DB
:103A80005B001344DB009B1A0B440833DA791B7A82
:103A90001B021A43002362F30F030146184601F08C
:103AA00087F8BA79614913465B001344DB009B1A1F
:103AB0000B4410335A799B791B021A43002362F39B
:103AC0000F030121184601F073F8012001F0ECF911
:103AD000BA79564913465B001344DB009B1A0B442A
:103AE00010335A799B791B021A43002362F30F03A8
:103AF0000021184601F05CF8022001F0D5F9FB79AD
:103B00001B01BB73BA79BB7B1B09DBB203F001035A
:103B1000D8B2464913465B001344DB009B1A0B44A2
:103B200008335A789B781B021A43002362F30F0371
:103B30000146184601F03CF8BA79BB7B5B09DBB261
:103B400003F00103D8B2394913465B001344DB008C
:103B50009B1A0B440833DA781B791B021A430023A3
:103B600062F30F030146184601F022F8BA79BB7BD5
:103B70009B09DBB203F00103D8B22C4913465B006A
:103B80001344DB009B1A0B4408335A799B791B02C0
:103B90001A43002362F30F030146184601F008F8A8
:103BA000BA79BB7BDB09D8B2204913465B001344CA
:103BB000DB009B1A0B440833DA791B7A1B021A4389
:103BC000002362F30F030146184600F0F1FFBA79B3
:103BD000164913465B001344DB009B1A0B44103359
:103BE0005A799B791B021A43002362F30F030121C8
:103BF000184600F0DDFF012001F056F9BA790B49B3
:103C000013465B001344DB009B1A0B4410335A79B4
:103C10009B791B021A43002362F30F03002118460D
:103C200000F0C6FF022001F03FF905E10800002086
:103C3000BA79844913465B001344DB009B1A0B449A
:103C40001B78012B40F0F380BA79FB7903F0010374
:103C5000D8B27C4913465B001344DB009B1A0B442B
:103C60005A789B781B021A43002362F30F03014624
:103C7000184600F09DFFBA79FB795B08DBB203F0D0
:103C80000103D8B26F4913465B001344DB009B1A53
:103C90000B44DA781B791B021A43002362F30F03EB
:103CA0000146184600F084FFBA79FB799B08DBB225
:103CB00003F00103D8B2634913465B001344DB00F1
:103CC0009B1A0B445A799B791B021A43002362F317
:103CD0000F030146184600F06BFFBA79FB79DB0849
:103CE000DBB203F00103D8B2564913465B0013441C
:103CF000DB009B1A0B44DA791B7A1B021A43002360
:103D000062F30F030146184600F052FFBA79FB79BF
:103D10001B09DBB203F00103D8B24A4913465B002A
:103D20001344DB009B1A0B4408335A789B781B0220
:103D30001A43002362F30F030146184600F038FFD0
:103D4000BA79FB795B09DBB203F00103D8B23D49D4
:103D500013465B001344DB009B1A0B440833DA78EC
:103D60001B791B021A43002362F30F030146184616
:103D700000F01EFFBA79FB799B09DBB203F0010367
:103D8000D8B2304913465B001344DB009B1A0B4446
:103D900008335A799B791B021A43002362F30F03FD
:103DA0000146184600F004FFBA79FB79DB09D8B266
:103DB000244913465B001344DB009B1A0B44083371
:103DC000DA791B7A1B021A43002362F30F030146C0
:103DD000184600F0EDFEBA791A4913465B00134409
:103DE000DB009B1A0B4410335A799B791B021A4350
:103DF000002362F30F030121184600F0D9FE0220D0
:103E000001F052F8BA790F4913465B001344DB0006
:103E10009B1A0B4410335A799B791B021A430023D7
:103E200062F30F030021184600F0C2FE04E00323F2
:103E3000FB7301E00123FB73FB7B18461037BD4683
:103E400080BD00BF0800002080B584B000AF0346ED
:103E50000A46FB711346BB710023FB73BB79002B31
:103E600040F06682BA79B04913465B001344DB0028
:103E70009B1A0B4410335A789B781B021A43002379
:103E800062F30F030021184600F092FEBA79A649AA
:103E900013465B001344DB009B1A0B441033DA78A3
:103EA0001B791B021A43002362F30F0300211846FB
:103EB00000F07EFEBA799C4913465B001344DB0098
:103EC0009B1A0B441B78002B40F03081FB7923F0C8
:103ED0000F03BB73BA79BB7B1B09DBB203F0010391
:103EE000D8B2914913465B001344DB009B1A0B4484
:103EF00008335A789B781B021A43002362F30F039E
:103F00000146184600F054FEBA79BB7B5B09DBB270
:103F100003F00103D8B2844913465B001344DB006D
:103F20009B1A0B440833DA781B791B021A430023CF
:103F300062F30F030146184600F03AFEBA79BB7BE4
:103F40009B09DBB203F00103D8B2774913465B004B
:103F50001344DB009B1A0B4408335A799B791B02EC
:103F60001A43002362F30F030146184600F020FEB7
:103F7000BA79BB7BDB09D8B26B4913465B001344AB
:103F8000DB009B1A0B440833DA791B7A1B021A43B5
:103F9000002362F30F030146184600F009FEBA79C8
:103FA000614913465B001344DB009B1A0B4410333A
:103FB0005A799B791B021A43002362F30F030121F4
:103FC000184600F0F5FD012000F06EFFBA79564961
:103FD00013465B001344DB009B1A0B4410335A79E1
:103FE0009B791B021A43002362F30F03002118463A
:103FF00000F0DEFD022000F057FFFB791B01BB73D0
:10400000BA79BB7B1B09DBB203F00103D8B2464986
:1040100013465B001344DB009B1A0B4408335A78A9
:104020009B781B021A43002362F30F0301461846D4
:1040300000F0BEFDBA79BB7B5B09DBB203F0010384
:10404000D8B2394913465B001344DB009B1A0B447A
:104050000833DA781B791B021A43002362F30F033B
:104060000146184600F0A4FDBA79BB7B9B09DBB280
:1040700003F00103D8B22C4913465B001344DB0064
:104080009B1A0B4408335A799B791B021A4300236D
:1040900062F30F030146184600F08AFDBA79BB7B34
:1040A000DB09D8B2204913465B001344DB009B1A9E
:1040B0000B440833DA791B7A1B021A43002362F39C
:1040C0000F030146184600F073FDBA7916491346EE
:1040D0005B001344DB009B1A0B4410335A799B7925
:1040E0001B021A43002362F30F030121184600F05C
:1040F0005FFD012000F0D8FEBA790B4913465B0042
:104100001344DB009B1A0B4410335A799B791B0232
:104110001A43002362F30F030021184600F048FD04
:10412000022000F0C1FE05E108000020BA798449B0
:1041300013465B001344DB009B1A0B441B78012BD6
:1041400040F0F380BA79FB7903F00103D8B27C49DF
:1041500013465B001344DB009B1A0B445A789B7890
:104160001B021A43002362F30F030146184600F0B6
:104170001FFDBA79FB795B08DBB203F00103D8B20B
:104180006F4913465B001344DB009B1A0B44DA783B
:104190001B791B021A43002362F30F0301461846E2
:1041A00000F006FDBA79FB799B08DBB203F001034E
:1041B000D8B2634913465B001344DB009B1A0B44DF
:1041C0005A799B791B021A43002362F30F030146BD
:1041D000184600F0EDFCBA79FB79DB08DBB203F09E
:1041E0000103D8B2564913465B001344DB009B1A07
:1041F0000B44DA791B7A1B021A43002362F30F0384
:104200000146184600F0D4FCBA79FB791B09DBB2F1
:1042100003F00103D8B24A4913465B001344DB00A4
:104220009B1A0B4408335A789B781B021A430023CD
:1042300062F30F030146184600F0BAFCBA79FB7925
:104240005B09DBB203F00103D8B23D4913465B00C2
:104250001344DB009B1A0B440833DA781B791B02EA
:104260001A43002362F30F030146184600F0A0FC36
:10427000BA79FB799B09DBB203F00103D8B230496C
:1042800013465B001344DB009B1A0B4408335A7936
:104290009B791B021A43002362F30F030146184661
:1042A00000F086FCBA79FB79DB09D8B224491346C1
:1042B0005B001344DB009B1A0B440833DA791B7A4A
:1042C0001B021A43002362F30F030146184600F055
:1042D0006FFCBA791A4913465B001344DB009B1A42
:1042E0000B4410335A799B791B021A43002362F363
:1042F0000F030121184600F05BFC022000F0D4FD02
:10430000BA790F4913465B001344DB009B1A0B4438
:1043100010335A799B791B021A43002362F30F036F
:104320000021184600F044FC04E00323FB7301E085
:104330000123FB73FB7B18461037BD4680BD00BFD1
:104340000800002080B584B000AF0346FB710B4627
:10435000BB7113467B710023FB73BB790F2B1ED8F7
:10436000FB79012B1BD87B79002B18D1FB79002B13
:1043700002D0012B09D014E0BB79803BDBB27A7903
:1043800011461846FFF760FD08E0BB79403BDBB201
:104390007A7911461846FFF757FD00BF01E0012367
:1043A000FB73FB7B18461037BD4680BD80B584B0DB
:1043B00000AF78600B46FB700023FB73FB78002B8B
:1043C0003AD10123BB6017E0BA6813469B0013443F
:1043D0005B00184679681C4BA3FB0123DA081346DF
:1043E0009B0013445B00CA1A8318BB607B68164AA3
:1043F000A2FB0323DB087B607B68002BE4D117E082
:10440000B968114BA3FB0123DA0813469B00134440
:104410005B00CA1AD3B23033DBB2FA7811461846C1
:10442000FFF794FABB68084AA2FB0323DB08BB60D2
:10443000BB68012BE4D101E00123FB73FB7B184631
:104440001037BD4680BD00BFCDCCCCCC80B582B08E
:1044500000AF0023FB711BE0FA79F97910480B4695
:104460005B000B440344023318780D4913465B008C
:1044700013440B441A785B781B021A43002362F33F
:104480000F030146184600F09DFAFB790133FB71DA
:10449000FB79002BE0D000BF0837BD4680BD00BFD0
:1044A000D055000880B584B000AF0346FB71FA799F
:1044B0000A4913465B0013440B441A785B781B02CD
:1044C0001A43002362F30F03184600F0D1FB0346A2
:1044D000FB73FB7B18461037BD4680BDD0550008E6
:1044E00080B582B000AF0023FB711BE0FA79F97947
:1044F00010480B465B000B440344023318780D4907
:1045000013465B0013440B441A785B781B021A4372
:10451000002362F30F030146184600F053FAFB79BB
:104520000133FB71FB79032BE0D900BF0837BD468F
:1045300080BD00BF2000002080B582B000AF0346E0
:10454000FB71FA79F9790F480B465B000B44034481
:1045500002331B7883F00103D8B20A4913465B008B
:1045600013440B441A785B781B021A43002362F34E
:104570000F030146184600F01BFB00BF0837BD467D
:1045800080BD00BF2000002080B582B000AF034690
:10459000FB71224B1B78012B1FD1FA79F979204846
:1045A0000B465B000B44034402331B7883F001038A
:1045B000D8B21B4913465B0013440B441A785B784E
:1045C0001B021A43002362F30F030146184600F052
:1045D000EFFA124B00221A701BE0FA79F9791048B1
:1045E0000B465B000B440344023318780C49134616
:1045F0005B0013440B441A785B781B021A430023B8
:1046000062F30F030146184600F0D2FA034B012271
:104610001A7000BF0837BD4680BD00BF2C000020C7
:104620002000002080B487B000AF3E4B9B683D4A1D
:1046300023F0010393603B4B9B683A4A43F001032C
:104640009360384B9B68374A43F002039360354BC5
:10465000344ADB6AD362334B9B68324A43F0080327
:104660009360304B9B682F4A43F0040393602D4BBB
:104670009B682C4A23F4006393603B1D00221A6060
:104680005A609A60DA600023FB7543E0FB7D052BDE
:1046900012D8244B5B6BFA7D07F118010A4412F81B
:1046A000142C1146FA7D02F0030201FA02F21146BF
:1046B0001C4A0B4353632AE0FB7D052B15D9FB7D78
:1046C0000B2B12D8174B1B6BFA7D07F118010A440C
:1046D00012F8142C1146FA7D02F0030201FA02F2DC
:1046E0001146104A0B43136311E00E4BDB6AFA7D4F
:1046F00007F118010A4412F8142C1146FA7D02F051
:10470000030201FA02F21146064A0B43D362FB7D13
:104710000133FB75FB7D0F2BB8D900BF1C37BD469D
:1047200080BC70470024014080B400AF074B9B68F9
:10473000064A43F001039360044B9B68034A43F429
:104740008003936000BFBD4680BC704700240140D9
:1047500080B483B000AF00BF074B1B685B0803F059
:104760000103002BF8D0044BDB6C7B607B681846A0
:104770000C37BD4680BC70470024014080B485B032
:1047800000AF03460A46FB711346BB71FB799B08D9
:10479000FB73FB7903F00303FB71144AFB7B0233C9
:1047A00052F82320FB799B000F2101FA03F3DB432E
:1047B00018460E49FB7B0240023341F823200B4A86
:1047C000FB7B023352F82320B979FB799B0001FA75
:1047D00003F318460549FB7B0243023341F82320CB
:1047E00000BF1437BD4680BC704700BF00000140C9
:1047F00080B483B000AF03460A46FB711346BB7119
:10480000BB79012B0ED0022B17D0002B2AD11D4BC8
:104810009B68FA79012101FA02F21146194A0B4309
:1048200093601FE0174BDB68FA79012101FA02F26D
:104830001146144A0B43D36014E0124B9B68FA797B
:10484000012101FA02F211460E4A0B4393600D4B0F
:10485000DB68FA79012101FA02F21146094A0B4399
:10486000D36000BF074B1B68FA79012101FA02F2FD
:104870001146044A0B43136000BF0C37BD4680BC91
:10488000704700BF0004014080B483B000AF03460E
:10489000FB71074B1B68FA79012101FA02F21146FC
:1048A000034A0B43136000BF0C37BD4680BC704702
:1048B0000004014080B483B000AF78600B46FB7009
:1048C000FB780F2B52D801A252F823F00D490008B3
:1048D000154900081D490008254900082D49000810
:1048E00035490008354900083549000835490008B0
:1048F000354900083D490008454900084D49000870
:10490000554900085D490008654900081A4A7B6856
:1049100013602BE0184A7B68536027E0164A7B68D7
:10492000936023E0144A7B68D3601FE0124A7B68DF
:1049300013611BE0104A7B68536117E00E4A7B68E5
:10494000936213E00C4A7B68D3620FE00A4A7B68EB
:1049500013630BE0084A7B68536307E0064A7B68F1
:10496000936303E0044A7B68D36300BF00BF0C3746
:10497000BD4680BC704700BF9045002080B500AFA9
:10498000054B1B689847054B5B69044A43F00103DC
:10499000536100BF80BD00BF90450020000401406E
:1049A00080B500AF054B5B699847054B5B69044ACE
:1049B00043F00103536100BF80BD00BF904500205C
:1049C0000004014080B483B000AFB8800B46FB7098
:1049D0007B79012B4DD0022B00F09280002B00D070
:1049E000DAE0FB78082B09D16E4BDB683A79114687
:1049F00001228A4011466B4A0B43D3603B79072B57
:104A000017D8684B1B683A7992000F2101FA02F21D
:104A1000D2431146634A0B401360624B1B68F9781E
:104A20003A79920001FA02F211465E4A0B43136092
:104A3000ADE03B790F2B00F2AA803B79083BDBB25B
:104A40003B71584B5B683A7992000F2101FA02F2F0
:104A5000D2431146534A0B405360524B5B68F9787E
:104A60003A79920001FA02F211464E4A0B43536022
:104A70008DE0FB78082B09D14B4BDB683A79114666
:104A800001228A401146484A0B43D3603B79072BE9
:104A900017D8454B1B683A7992000F2101FA02F2B0
:104AA000D2431146404A0B4013603F4B1B68F978D4
:104AB0003A79920001FA02F211463B4A0B43136025
:104AC00067E03B790F2B64D83B79083BDBB23B7145
:104AD000354B5B683A7992000F2101FA02F2D2431A
:104AE0001146314A0B4053602F4B5B68F9783A7995
:104AF000920001FA02F211462B4A0B43536048E040
:104B0000FB78082B09D1294BDB683A791146012241
:104B10008A401146254A0B43D3603B79072B17D8AF
:104B2000224B1B683A7992000F2101FA02F2D2431C
:104B300011461E4A0B4013601C4B1B68F9783A79EA
:104B4000920001FA02F21146184A0B43136022E068
:104B50003B790F2B1FD83B79083BDBB23B71134BE2
:104B60005B683A7992000F2101FA02F2D2431146B2
:104B70000E4A0B4053600D4B5B68F9783A7992000E
:104B800001FA02F21146094A0B43536003E000BFE9
:104B900002E000BF00E000BF00BF0C37BD4680BC94
:104BA000704700BF00080140000C014000100140A8
:104BB00080B483B000AFB8800B46FB707B79012BCB
:104BC0001AD0022B2ED0002B00D046E0FB78012B10
:104BD00007D13B791A46012303FA02F2214B1A61ED
:104BE00036E0FB78002B33D13B791A46012303FAD8
:104BF00002F21C4B5A612BE0FB78012B07D13B7969
:104C00001A46012303FA02F2174B1A6122E0FB78DD
:104C1000002B1FD13B791A46012303FA02F2124BF3
:104C20005A6117E0FB78012B07D13B791A46012323
:104C300003FA02F20D4B1A610EE0FB78002B0BD148
:104C40003B791A46012303FA02F2084B5A6103E04A
:104C500000BF02E000BF00E000BF00BF0C37BD4650
:104C600080BC704700080140000C0140001001406A
:104C700080B485B000AFB8800023FB737B79012B33
:104C80000DD0022B14D0002B00D01AE0104B9B68E3
:104C90003A79D340DBB203F00103FB7311E00D4B13
:104CA0009B683A79D340DBB203F00103FB7308E061
:104CB000094B9B683A79D340DBB203F00103FB73E5
:104CC00000BFFB7B18461437BD4680BC704700BF51
:104CD00000080140000C01400010014080B483B086
:104CE00000AF0346FB71FB7903F01F03012202FAB8
:104CF00003F1054AFB795B09DBB242F8231000BFE0
:104D00000C37BD4680BC704700E100E080B483B042
:104D100000AF00237B600023FB701C4B5B681B4AC9
:104D200043F001035360194B5B68184A23F00203F8
:104D30005360164B1B68154A43F48033136002E03E
:104D40007B6801337B60114B1B685B0C03F0010334
:104D5000002B03D17B680E4A9342F1D97B680C4A41
:104D6000934201D90623FB70084B1B68074A43F4A2
:104D700000231360054B5B68044A23F08063536093
:104D8000FB7818460C37BD4680BC704700100240C7
:104D90009F86010080B485B000AF03460A46FB71D0
:104DA0001346BB710023FB73BB791F2B2BD8FB79F8
:104DB000012B0ED0022B17D0002B20D1164B5B6994
:104DC000BA79012101FA02F21146134A0B435361E9
:104DD0001BE0114BDB69BA79012101FA02F211469D
:104DE0000D4A0B43D36110E00B4B9B69BA7901214B
:104DF00001FA02F21146084A0B43936105E00123D0
:104E0000FB7300BF01E00123FB73FB7B18461437E3
:104E1000BD4680BC704700BF0010024080B485B022
:104E200000AF03460A46FB711346BB710023FB73B8
:104E3000BB791F2B2ED8FB79012B0FD0022B19D059
:104E4000002B23D1174B5B69BA79012101FA02F2D9
:104E5000D2431146134A0B4053611DE0114BDB69ED
:104E6000BA79012101FA02F2D24311460D4A0B40F0
:104E7000D36111E00B4B9B69BA79012101FA02F26F
:104E8000D2431146074A0B40936105E00123FB73AF
:104E900000BF01E00123FB73FB7B18461437BD46BE
:104EA00080BC70470010024080B483B000AF7860CF
:104EB000114B07229A62104A7B68D3620E4B1B6823
:104EC0000D4A43F00103136000BF0B4B1B6903F055
:104ED0000103012BF9D1084B1B69074A23F0010399
:104EE0001361054B1B68044A23F00103136000BFE4
:104EF0000C37BD4680BC70470008004080B483B0CA
:104F000000AF7860124B41F63F729A62104A7B689C
:104F1000D3620F4B1B680E4A43F00103136000BFBE
:104F20000B4B1B6903F00103012BF9D1084B1B69E3
:104F3000074A23F001031361054B1B68044A23F061
:104F40000103136000BF0C37BD4680BC704700BF33
:104F50000008004080B500AF074B1B69064A23F0EC
:104F600001031361054B1B68002B02D0034B1B6828
:104F7000984700BF80BD00BF00040040D04500201E
:104F800080B400AF234B40F241329A60214BDB6882
:104F9000204A23F48053D3601E4BDB681D4A23F460
:104FA0008063D3601B4BDB681A4A23F02003D36075
:104FB000184BDB68174A23F04003D360154BDB68BE
:104FC000144A23F08003D360124BDB68114A43F08C
:104FD0000803D3600F4BDB680E4A43F00403D36031
:104FE0000C4B1B690B4A23F480531361094B1B695B
:104FF000084A23F400531361064BDB68054A43F467
:105000000053D360034B00221A6000BFBD4680BC32
:10501000704700BF0038014080B483B000AF034642
:10502000FB710B4AFB79536000BF094B1B689B095E
:1050300003F00103002BF8D0054B1B68044A23F052
:105040004003136000BF0C37BD4680BC704700BFF3
:105050000038014080B584B000AF78600023FB7356
:1050600009E0FB7B7A6813441B781846FFF7D4FFEE
:10507000FB7B0133FB73FB7B7A6813441B78002BAB
:10508000EFD10A20FFF7C8FF00BF1037BD4680BD33
:1050900080B485B000AF78600023FB730023BB6051
:1050A000124B1B68114A23F02003136002E0BB6817
:1050B0000133BB600D4B1B685B0903F00103002B40
:1050C00003D1BA687B689A42F1D3BA687B689A4286
:1050D00002D1FF23FB7302E0044B5B68FB73FB7B95
:1050E00018461437BD4680BC704700BF00380140E9
:1050F00080B584B000AF78600023FB730CE0BB7B0D
:10510000FF2B06D0FB7B1349BA7BCA54FB7B0133D0
:10511000FB737B68013B7B604FF47A70FFF7B8FF4D
:105120000346BB73BB7B242B02D07B68002BE6D1EC
:105130007B68002B04D1074B21221A700123FB73DB
:10514000FB7B044A0021D154024B18461037BD4660
:1051500080BD00BFE445002080B500AFFFF7D6FD5D
:10516000012200210220FCF738FC0246184B1A608D
:10517000012200210820FCF730FC0246154B1A6082
:10518000012200210220FCF728FC0246124B1A6083
:10519000012200210820FCF720FC02460F4B1A6078
:1051A000012200210420FCF718FC02460C4B1A6077
:1051B000FBF7E0F8FAF7DCFFFBF780F9FBF760F8A4
:1051C000FBF724F9FBF71CF9FDF7F4F8FEE700BF45
:1051D000FC4500200446002008460020F845002039
:1051E000004600200D488546AFF300800C480D496D
:1051F0000D4A002302E0D458C4500433C4188C4232
:10520000F9D30A4A0A4C002301E013600432A24297
:10521000FBD300F011F8FFF79FFFFEE700500020DE
:105220000000002030000020DC5500083000002085
:105230000C460020FEE7000070B500250C4E0D4C1A
:10524000A41BA410A54209D100F02EF800250A4E97
:105250000A4CA41BA410A54205D170BD56F82530F8
:1052600098470135EEE756F8253098470135F2E7C3
:10527000D4550008D4550008D4550008D855000866
:1052800010B5431E0A44914200D110BD11F8014BE4
:1052900003F8014FF7E703460244934200D17047F9
:1052A00003F8011BF9E70000F8B500BFF8BC08BC23
:1052B0009E467047F8B500BFF8BC08BC9E467047D4
:1052C000436865636B427574746F6E0055736572E5
:1052D000496E70757400000043757272656E744497
:1052E0006174610055706461746552656164696ED2
:1052F000670000005374617475735461736B000030
:1053000055736572496E7075740000005265747251
:1053100069657665644461746100000031000000D5
:105320002A2A2A2057656C636F6D65202A2A2A0075
:1053300031202D2055736572204D6F64652E00005D
:1053400032202D2050726976617465204D6F64653E
:105350002E000000456E74657220796F757220739F
:10536000656C65637465642063686F696365203A82
:105370002000000031202D2052656368617267654E
:105380002E00000032202D2052657472696576650A
:1053900020796F757220706F77657220436F6E731E
:1053A000756D7074696F6E2064657461696C7320CB
:1053B00073696E6365206C617374206368617267E2
:1053C000652E000033202D2041646A7573742050CF
:1053D0006F77657220436F6E73756D7074696F6E51
:1053E00020557365204C6576656C732E00000000B7
:1053F00031202D2041646A757374204B576D2074E1
:1054000061726966662E000032202D2041646A7543
:1054100073742054696D652E0000000033202D2028
:1054200041646A75737420446174652E0000000045
:1054300031202D203230204C2E45200032202D20CE
:105440003530204C2E45200033202D2031303020A7
:105450004C2E452000000000456E74657220566198
:105460006C756520284C2E4529203A20000000004C
:1054700044617465202020207C202054696D6520C3
:105480007C20506F77657220436F6E73756D656415
:10549000284B576D29207C095072696365284C2E72
:1054A000452900005F5F5F5F5F5F5F5F5F5F5F5F1A
:1054B0005F5F5F5F5F5F5F5F5F5F5F5F5F5F5F5FFC
:1054C0005F5F5F5F5F5F5F5F5F5F5F5F5F5F5F5FEC
:1054D0005F5F5F5F5F5F5F0031202D204E6F726DF9
:1054E000616C207573652E0032202D204D6F646530
:1054F00072617465207573652E00000033202D20C5
:1055000048696768207573652E000000506F7765E5
:105510007220436F6E73756D7074696F6E20546185
:105520007269666620696E284C2E452C09502E54EF
:105530002920666F746D61743A20000054696D65AE
:1055400020696E28686F75725B30202D3E203233E3
:105550005D203A206D696E7574655B30202D3E20AC
:1055600035395D2920666F746D61743A2000000042
:105570004461746520696E2859656172202F206D21
:105580006F6E7468202F206461792920666F746DB6
:1055900061743A200000000057726F6E6720496EF8
:1055A0007075742E20706C6561736520547279205B
:1055B000416761696E2E000049444C4500000000BF
:1055C000546D722053766300546D725100000000D8
:0455D00008010800C6
:0455D4005501000875
:0455D8003101000895
:1055DC00AAAAAAAA03000000000000000000000014
:1055EC0000080009000A000B000C010D010E01005F
:1055FC000001010101010A01010B01010100000080
:04000005080051E5B9
:00000001FF
